:1000000029C0000042C0000040C000003EC0000007
:100010003CC000003AC0000038C0000036C00000FC
:1000200034C0000032C0000030C000002EC000000C
:100030002CC000002AC0000028C0000026C000001C
:1000400024C0000022C0000020C000001EC000002C
:100050001CC0000011241FBECFE5D8E0DEBFCDBF1D
:1000600010E0A0E6B0E0E6ECF0E002C005900D92F2
:10007000A036B107D9F720E0A0E6B0E001C01D929C
:10008000A036B207E1F70ED01CC0BACFA5980895EC
:1000900083B3807290E00895D09A0895D89A089515
:1000A000D8980895F3DFF8DF87EA91E60197F1F732
:1000B00000C00000EDDF892B11F0F0DFF5CFF0DF9D
:0600C000F3CFF894FFCF1E
:00000001FF
